{
  "_format": "hh-sol-artifact-1",
  "contractName": "TicketBooking",
  "sourceName": "contracts/TicketBooking.sol",
  "abi": [
    {
      "inputs": [],
      "stateMutability": "nonpayable",
      "type": "constructor"
    },
    {
      "inputs": [],
      "name": "MAX_SEATS",
      "outputs": [
        {
          "internalType": "uint8",
          "name": "",
          "type": "uint8"
        }
      ],
      "stateMutability": "view",
      "type": "function"
    },
    {
      "inputs": [],
      "name": "MAX_TICKETS_PER_USER",
      "outputs": [
        {
          "internalType": "uint8",
          "name": "",
          "type": "uint8"
        }
      ],
      "stateMutability": "view",
      "type": "function"
    },
    {
      "inputs": [
        {
          "internalType": "uint8[]",
          "name": "seatNumbers",
          "type": "uint8[]"
        }
      ],
      "name": "bookSeats",
      "outputs": [],
      "stateMutability": "nonpayable",
      "type": "function"
    },
    {
      "inputs": [
        {
          "internalType": "uint8",
          "name": "seatNumber",
          "type": "uint8"
        }
      ],
      "name": "checkAvailability",
      "outputs": [
        {
          "internalType": "bool",
          "name": "",
          "type": "bool"
        }
      ],
      "stateMutability": "view",
      "type": "function"
    },
    {
      "inputs": [],
      "name": "myTickets",
      "outputs": [
        {
          "internalType": "uint8[]",
          "name": "",
          "type": "uint8[]"
        }
      ],
      "stateMutability": "view",
      "type": "function"
    },
    {
      "inputs": [],
      "name": "owner",
      "outputs": [
        {
          "internalType": "address",
          "name": "",
          "type": "address"
        }
      ],
      "stateMutability": "view",
      "type": "function"
    },
    {
      "inputs": [
        {
          "internalType": "uint8",
          "name": "",
          "type": "uint8"
        }
      ],
      "name": "seats",
      "outputs": [
        {
          "internalType": "bool",
          "name": "",
          "type": "bool"
        }
      ],
      "stateMutability": "view",
      "type": "function"
    },
    {
      "inputs": [],
      "name": "showAvailableSeats",
      "outputs": [
        {
          "internalType": "uint8[]",
          "name": "",
          "type": "uint8[]"
        }
      ],
      "stateMutability": "view",
      "type": "function"
    },
    {
      "inputs": [
        {
          "internalType": "address",
          "name": "",
          "type": "address"
        },
        {
          "internalType": "uint256",
          "name": "",
          "type": "uint256"
        }
      ],
      "name": "userTickets",
      "outputs": [
        {
          "internalType": "uint8",
          "name": "",
          "type": "uint8"
        }
      ],
      "stateMutability": "view",
      "type": "function"
    }
  ],
  "bytecode": "0x6080604052348015600f57600080fd5b50600080546001600160a01b0319163317905560015b601460ff821611605e5760ff81166000908152600160208190526040909120805460ff19169091179055806057816063565b9150506025565b50608f565b600060ff821660ff8103608657634e487b7160e01b600052601160045260246000fd5b60010192915050565b61075b8061009e6000396000f3fe608060405234801561001057600080fd5b50600436106100925760003560e01c8063713d87c511610066578063713d87c5146100fa5780638da5cb5b1461011d57806394c2c24f14610148578063c79b8f2314610150578063cf260baf1461016557600080fd5b8062ea8737146100975780630d1fdce0146100b557806330bfae46146100d8578063652826e0146100e0575b600080fd5b61009f610178565b6040516100ac91906105c3565b60405180910390f35b6100c86100c3366004610609565b6101f7565b60405190151581526020016100ac565b61009f61026f565b6100e8600481565b60405160ff90911681526020016100ac565b6100c8610108366004610609565b60016020526000908152604090205460ff1681565b600054610130906001600160a01b031681565b6040516001600160a01b0390911681526020016100ac565b6100e8601481565b61016361015e366004610633565b610312565b005b6100e86101733660046106aa565b610580565b336000908152600260209081526040918290208054835181840281018401909452808452606093928301828280156101ed57602002820191906000526020600020906000905b825461010083900a900460ff168152602060019283018181049485019490930390920291018084116101be5790505b5050505050905090565b6000808260ff1611801561020f5750601460ff831611155b6102565760405162461bcd60e51b815260206004820152601360248201527224b73b30b634b21039b2b0ba10373ab6b132b960691b60448201526064015b60405180910390fd5b5060ff9081166000908152600160205260409020541690565b6040805160148082526102a08201909252606091600091906020820161028080368337019050509050600060015b601460ff82161161030a5760ff80821660009081526001602052604090205416156102f85780838360ff16815181106102d8576102d86106e2565b60ff90921660209283029190910190910152816102f4816106f8565b9250505b80610302816106f8565b91505061029d565b508152919050565b60048111156103635760405162461bcd60e51b815260206004820152601f60248201527f43616e6e6f7420626f6f6b206d6f7265207468616e2034207469636b65747300604482015260640161024d565b60005b60ff811682111561057b57600083838360ff16818110610388576103886106e2565b905060200201602081019061039d9190610609565b60ff161180156103da57506014838360ff84168181106103bf576103bf6106e2565b90506020020160208101906103d49190610609565b60ff1611155b61041c5760405162461bcd60e51b815260206004820152601360248201527224b73b30b634b21039b2b0ba10373ab6b132b960691b604482015260640161024d565b6001600084848460ff16818110610435576104356106e2565b905060200201602081019061044a9190610609565b60ff9081168252602082019290925260400160002054166104a25760405162461bcd60e51b815260206004820152601260248201527153656174206e6f7420617661696c61626c6560701b604482015260640161024d565b60006001600085858560ff168181106104bd576104bd6106e2565b90506020020160208101906104d29190610609565b60ff908116825260208083019390935260409182016000908120805460ff19169515159590951790945533845260029092529091209084908490841681811061051d5761051d6106e2565b90506020020160208101906105329190610609565b81546001810183556000928352602092839020928104909201805460ff928316601f9094166101000a938402929093021990921617905580610573816106f8565b915050610366565b505050565b6002602052816000526040600020818154811061059c57600080fd5b9060005260206000209060209182820401919006915091509054906101000a900460ff1681565b602080825282518282018190526000918401906040840190835b818110156105fe57835160ff168352602093840193909201916001016105dd565b509095945050505050565b60006020828403121561061b57600080fd5b813560ff8116811461062c57600080fd5b9392505050565b6000806020838503121561064657600080fd5b823567ffffffffffffffff81111561065d57600080fd5b8301601f8101851361066e57600080fd5b803567ffffffffffffffff81111561068557600080fd5b8560208260051b840101111561069a57600080fd5b6020919091019590945092505050565b600080604083850312156106bd57600080fd5b82356001600160a01b03811681146106d457600080fd5b946020939093013593505050565b634e487b7160e01b600052603260045260246000fd5b600060ff821660ff810361071c57634e487b7160e01b600052601160045260246000fd5b6001019291505056fea26469706673582212205b45099657509bff768854b033cfee2bdef58f3339cb2496a20108fdc73eefdb64736f6c634300081b0033",
  "linkReferences": {},
  "deployedLinkReferences": {}
}